{
  "contractName": "p2p",
  "abi": [
    {
      "anonymous": false,
      "inputs": [
        {
          "indexed": true,
          "internalType": "uint256",
          "name": "amnt",
          "type": "uint256"
        }
      ],
      "name": "log",
      "type": "event"
    },
    {
      "inputs": [
        {
          "internalType": "address",
          "name": "",
          "type": "address"
        }
      ],
      "name": "Kyc",
      "outputs": [
        {
          "internalType": "enum p2p.locations",
          "name": "",
          "type": "uint8"
        }
      ],
      "stateMutability": "view",
      "type": "function",
      "constant": true
    },
    {
      "inputs": [
        {
          "internalType": "address",
          "name": "",
          "type": "address"
        }
      ],
      "name": "holders",
      "outputs": [
        {
          "internalType": "uint256",
          "name": "",
          "type": "uint256"
        }
      ],
      "stateMutability": "view",
      "type": "function",
      "constant": true
    },
    {
      "inputs": [
        {
          "internalType": "uint256",
          "name": "",
          "type": "uint256"
        }
      ],
      "name": "p2pMerchants",
      "outputs": [
        {
          "internalType": "address payable",
          "name": "",
          "type": "address"
        }
      ],
      "stateMutability": "view",
      "type": "function",
      "constant": true
    },
    {
      "inputs": [
        {
          "internalType": "address",
          "name": "",
          "type": "address"
        }
      ],
      "name": "p2pRate",
      "outputs": [
        {
          "internalType": "uint256",
          "name": "",
          "type": "uint256"
        }
      ],
      "stateMutability": "view",
      "type": "function",
      "constant": true
    },
    {
      "inputs": [
        {
          "internalType": "address",
          "name": "user",
          "type": "address"
        }
      ],
      "name": "fromNigeria",
      "outputs": [],
      "stateMutability": "nonpayable",
      "type": "function"
    },
    {
      "inputs": [
        {
          "internalType": "address",
          "name": "_user",
          "type": "address"
        }
      ],
      "name": "fromGhana",
      "outputs": [],
      "stateMutability": "nonpayable",
      "type": "function"
    },
    {
      "inputs": [
        {
          "internalType": "address payable",
          "name": "_ad",
          "type": "address"
        },
        {
          "internalType": "uint256",
          "name": "exToken",
          "type": "uint256"
        }
      ],
      "name": "setAdmin",
      "outputs": [],
      "stateMutability": "nonpayable",
      "type": "function"
    },
    {
      "inputs": [
        {
          "internalType": "address payable",
          "name": "merch",
          "type": "address"
        },
        {
          "internalType": "uint256",
          "name": "rate",
          "type": "uint256"
        }
      ],
      "name": "addp2pMerchant",
      "outputs": [],
      "stateMutability": "nonpayable",
      "type": "function"
    },
    {
      "inputs": [
        {
          "internalType": "uint256",
          "name": "fee",
          "type": "uint256"
        },
        {
          "internalType": "address",
          "name": "_reciver",
          "type": "address"
        },
        {
          "internalType": "uint256",
          "name": "amount",
          "type": "uint256"
        }
      ],
      "name": "transcact",
      "outputs": [],
      "stateMutability": "payable",
      "type": "function",
      "payable": true
    },
    {
      "inputs": [
        {
          "internalType": "uint256",
          "name": "_fee",
          "type": "uint256"
        },
        {
          "internalType": "uint256",
          "name": "amount",
          "type": "uint256"
        },
        {
          "internalType": "uint256",
          "name": "rate",
          "type": "uint256"
        }
      ],
      "name": "transactWithP2p",
      "outputs": [],
      "stateMutability": "payable",
      "type": "function",
      "payable": true
    },
    {
      "inputs": [
        {
          "internalType": "uint256",
          "name": "_amount",
          "type": "uint256"
        },
        {
          "internalType": "address",
          "name": "buyer",
          "type": "address"
        }
      ],
      "name": "sendWithp2p",
      "outputs": [],
      "stateMutability": "nonpayable",
      "type": "function"
    }
  ],
  "bytecode": "0x608060405234801561001057600080fd5b50610ec6806100206000396000f3fe60806040526004361061009c5760003560e01c8063684552ad11610064578063684552ad146101825780637c9a36181461019e57806380968b04146101db578063d042040b14610218578063f8f9f5f714610234578063fd6faf90146102715761009c565b80631250b5f6146100a157806318a5bbdc146100ca57806336be19971461010757806341f0af95146101305780634ff6428b14610159575b600080fd5b3480156100ad57600080fd5b506100c860048036038101906100c39190610adb565b61029a565b005b3480156100d657600080fd5b506100f160048036038101906100ec9190610adb565b61030b565b6040516100fe9190610b21565b60405180910390f35b34801561011357600080fd5b5061012e60048036038101906101299190610adb565b610323565b005b34801561013c57600080fd5b5061015760048036038101906101529190610ba6565b610390565b005b34801561016557600080fd5b50610180600480360381019061017b9190610ba6565b610513565b005b61019c60048036038101906101979190610be6565b61055f565b005b3480156101aa57600080fd5b506101c560048036038101906101c09190610adb565b61074e565b6040516101d29190610b21565b60405180910390f35b3480156101e757600080fd5b5061020260048036038101906101fd9190610adb565b610766565b60405161020f9190610cb0565b60405180910390f35b610232600480360381019061022d9190610ccb565b610786565b005b34801561024057600080fd5b5061025b60048036038101906102569190610d1e565b61086e565b6040516102689190610d5a565b60405180910390f35b34801561027d57600080fd5b5061029860048036038101906102939190610d75565b6108ad565b005b60006001905080600260008473ffffffffffffffffffffffffffffffffffffffff1673ffffffffffffffffffffffffffffffffffffffff16815260200190815260200160002060006101000a81548160ff0219169083600181111561030257610301610c39565b5b02179055505050565b60036020528060005260406000206000915090505481565b600080600260008473ffffffffffffffffffffffffffffffffffffffff1673ffffffffffffffffffffffffffffffffffffffff16815260200190815260200160002060006101000a81548160ff0219169083600181111561038757610386610c39565b5b02179055505050565b600460009054906101000a900473ffffffffffffffffffffffffffffffffffffffff1673ffffffffffffffffffffffffffffffffffffffff163373ffffffffffffffffffffffffffffffffffffffff16146103ea57600080fd5b600060018111156103fe576103fd610c39565b5b600260008473ffffffffffffffffffffffffffffffffffffffff1673ffffffffffffffffffffffffffffffffffffffff16815260200190815260200160002060009054906101000a900460ff16600181111561045d5761045c610c39565b5b141561046857600080fd5b6000829080600181540180825580915050600190039060005260206000200160009091909190916101000a81548173ffffffffffffffffffffffffffffffffffffffff021916908373ffffffffffffffffffffffffffffffffffffffff16021790555080600160008473ffffffffffffffffffffffffffffffffffffffff1673ffffffffffffffffffffffffffffffffffffffff168152602001908152602001600020819055505050565b81600460006101000a81548173ffffffffffffffffffffffffffffffffffffffff021916908373ffffffffffffffffffffffffffffffffffffffff160217905550806005819055505050565b34925081831461056e57600080fd5b6000600181111561058257610581610c39565b5b600260003373ffffffffffffffffffffffffffffffffffffffff1673ffffffffffffffffffffffffffffffffffffffff16815260200190815260200160002060009054906101000a900460ff1660018111156105e1576105e0610c39565b5b146105eb57600080fd5b60005b60008054905081101561071b57816001600080848154811061061357610612610db5565b5b9060005260206000200160009054906101000a900473ffffffffffffffffffffffffffffffffffffffff1673ffffffffffffffffffffffffffffffffffffffff1673ffffffffffffffffffffffffffffffffffffffff168152602001908152602001600020541461068357600080fd5b6000818154811061069757610696610db5565b5b9060005260206000200160009054906101000a900473ffffffffffffffffffffffffffffffffffffffff1673ffffffffffffffffffffffffffffffffffffffff166108fc859081150290604051600060405180830381858888f19350505050158015610707573d6000803e3d6000fd5b50808061071390610e13565b9150506105ee565b50817ff82c50f1848136e6c140b186ea0c768b7deda5efffe42c25e96336a90b26c74460405160405180910390a2505050565b60016020528060005260406000206000915090505481565b60026020528060005260406000206000915054906101000a900460ff1681565b34925080831461079557600080fd5b6001808111156107a8576107a7610c39565b5b600260008473ffffffffffffffffffffffffffffffffffffffff1673ffffffffffffffffffffffffffffffffffffffff16815260200190815260200160002060009054906101000a900460ff16600181111561080757610806610c39565b5b1461081157600080fd5b8060055461081f9190610e5c565b60058190555080600360008473ffffffffffffffffffffffffffffffffffffffff1673ffffffffffffffffffffffffffffffffffffffff16815260200190815260200160002081905550505050565b6000818154811061087e57600080fd5b906000526020600020016000915054906101000a900473ffffffffffffffffffffffffffffffffffffffff1681565b6001808111156108c0576108bf610c39565b5b600260003373ffffffffffffffffffffffffffffffffffffffff1673ffffffffffffffffffffffffffffffffffffffff16815260200190815260200160002060009054906101000a900460ff16600181111561091f5761091e610c39565b5b1461092957600080fd5b81600360003373ffffffffffffffffffffffffffffffffffffffff1673ffffffffffffffffffffffffffffffffffffffff16815260200190815260200160002054101561097557600080fd5b81600360003373ffffffffffffffffffffffffffffffffffffffff1673ffffffffffffffffffffffffffffffffffffffff168152602001908152602001600020546109c09190610e5c565b600360003373ffffffffffffffffffffffffffffffffffffffff1673ffffffffffffffffffffffffffffffffffffffff1681526020019081526020016000208190555081600360008373ffffffffffffffffffffffffffffffffffffffff1673ffffffffffffffffffffffffffffffffffffffff16815260200190815260200160002081905550817ff82c50f1848136e6c140b186ea0c768b7deda5efffe42c25e96336a90b26c74460405160405180910390a25050565b600080fd5b600073ffffffffffffffffffffffffffffffffffffffff82169050919050565b6000610aa882610a7d565b9050919050565b610ab881610a9d565b8114610ac357600080fd5b50565b600081359050610ad581610aaf565b92915050565b600060208284031215610af157610af0610a78565b5b6000610aff84828501610ac6565b91505092915050565b6000819050919050565b610b1b81610b08565b82525050565b6000602082019050610b366000830184610b12565b92915050565b6000610b4782610a7d565b9050919050565b610b5781610b3c565b8114610b6257600080fd5b50565b600081359050610b7481610b4e565b92915050565b610b8381610b08565b8114610b8e57600080fd5b50565b600081359050610ba081610b7a565b92915050565b60008060408385031215610bbd57610bbc610a78565b5b6000610bcb85828601610b65565b9250506020610bdc85828601610b91565b9150509250929050565b600080600060608486031215610bff57610bfe610a78565b5b6000610c0d86828701610b91565b9350506020610c1e86828701610b91565b9250506040610c2f86828701610b91565b9150509250925092565b7f4e487b7100000000000000000000000000000000000000000000000000000000600052602160045260246000fd5b60028110610c7957610c78610c39565b5b50565b6000819050610c8a82610c68565b919050565b6000610c9a82610c7c565b9050919050565b610caa81610c8f565b82525050565b6000602082019050610cc56000830184610ca1565b92915050565b600080600060608486031215610ce457610ce3610a78565b5b6000610cf286828701610b91565b9350506020610d0386828701610ac6565b9250506040610d1486828701610b91565b9150509250925092565b600060208284031215610d3457610d33610a78565b5b6000610d4284828501610b91565b91505092915050565b610d5481610b3c565b82525050565b6000602082019050610d6f6000830184610d4b565b92915050565b60008060408385031215610d8c57610d8b610a78565b5b6000610d9a85828601610b91565b9250506020610dab85828601610ac6565b9150509250929050565b7f4e487b7100000000000000000000000000000000000000000000000000000000600052603260045260246000fd5b7f4e487b7100000000000000000000000000000000000000000000000000000000600052601160045260246000fd5b6000610e1e82610b08565b91507fffffffffffffffffffffffffffffffffffffffffffffffffffffffffffffffff821415610e5157610e50610de4565b5b600182019050919050565b6000610e6782610b08565b9150610e7283610b08565b925082821015610e8557610e84610de4565b5b82820390509291505056fea26469706673582212202f04c937525ac6cd31fa22dbd52f15ede0389a7a95f3c78c9868d1317fce463e64736f6c634300080b0033",
  "immutableReferences": {},
  "source": "// SPDX-License-Identifier: MIT\r\npragma solidity ^0.8.0;\r\n\r\ncontract p2p {\r\n    address payable[] public  p2pMerchants;\r\n\r\n    mapping(address => uint) public p2pRate;\r\n\r\n    enum locations {\r\n        Nigeria,\r\n        Ghana\r\n    }\r\n\r\n    mapping (address => locations) public Kyc;\r\n    mapping (address => uint) public holders;\r\n\r\n    function fromNigeria(address user) external {\r\n       locations Nigerians = locations.Nigeria;\r\n       Kyc[user] = Nigerians;\r\n    }\r\n\r\n     function fromGhana(address _user) external {\r\n       locations Ghanians = locations.Ghana;\r\n       Kyc[_user] = Ghanians;\r\n    }    \r\n\r\n    address payable marketAdmin;\r\n    uint private exchangeToken;\r\n\r\n    function setAdmin(address payable _ad, uint exToken) external {\r\n        marketAdmin = _ad;\r\n        exchangeToken = exToken;\r\n    }\r\n\r\n    modifier onlyAdmin() {\r\n        require(msg.sender == marketAdmin);\r\n        _;\r\n    }\r\n\r\n    function addp2pMerchant(address payable merch, uint rate) external onlyAdmin {\r\n        require(Kyc[merch] != locations.Nigeria);\r\n        p2pMerchants.push(merch);\r\n        p2pRate[merch] = rate;\r\n    }\r\n\r\n    function transcact(uint fee, address _reciver, uint amount) external payable {\r\n        fee = msg.value;\r\n        require(fee == amount);\r\n        require(Kyc[_reciver] == locations.Ghana);\r\n        exchangeToken = exchangeToken - amount;\r\n        holders[_reciver] = amount;\r\n    }\r\n\r\n    event log(uint indexed amnt);\r\n\r\n    function transactWithP2p(uint _fee,uint amount, uint rate) external payable {\r\n        _fee = msg.value;\r\n        require(_fee == amount);   \r\n        require(Kyc[msg.sender] == locations.Nigeria);\r\n        for(uint i = 0; i < p2pMerchants.length; i++) {\r\n            require(p2pRate[p2pMerchants[i]] == rate);\r\n            p2pMerchants[i].transfer(_fee);\r\n        }\r\n        emit log(amount);    \r\n    }\r\n\r\n    function sendWithp2p(uint _amount, address buyer) external {\r\n        require(Kyc[msg.sender] == locations.Ghana);\r\n        require(holders[msg.sender] >= _amount);\r\n        holders[msg.sender] = holders[msg.sender] - _amount;\r\n        holders[buyer] = _amount;\r\n        emit log(_amount);\r\n    }\r\n\r\n    \r\n}\r\n",
  "sourcePath": "C:\\Users\\lateefat .D. Ibrahim\\Desktop\\Blank\\SmartContractProject\\p2p\\contracts\\p2p.sol",
  "compiler": {
    "name": "solc",
    "version": "0.8.11+commit.d7f03943.Emscripten.clang"
  },
  "schemaVersion": "3.4.4",
  "updatedAt": "2022-08-04T16:03:58.092Z",
  "networkType": "ethereum",
  "devdoc": {
    "kind": "dev",
    "methods": {},
    "version": 1
  },
  "userdoc": {
    "kind": "user",
    "methods": {},
    "version": 1
  }
}